{"jsonrpc":"1.0","result":{"hex":"010000000105eaacd8ef829814a33155ea9ea33748fcff9da791c48092cce964340014f05c0200000000ffffffff02683ed9060000000000001976a91418c235413d7c1abc0b3609b77c625bcd4d3370d688ac00c2eb0b0000000000001976a91410437a67b9eef35979f5412667e700a7b5b4f78088ac0000000000000000013c63c5120000000010ef0400000000006a47304402206cfcd9d0e390d7f1a367eda5ba1f159416235c8fa54cc3ea04e8381aa17a93050220220aea7e9ca2d4750354990f1e81a3acc5f1f484557a5968262eeafdaea02a20012102ae1f6b51086bd753f072f94eb8ffe6806d3570c088a3ede46c678b6ea47d1675","txid":"2f102d398ba7e3f79a1ca7c9ec6e3238876570a5b6d1785a66a77032775614ce","version":1,"locktime":0,"expiry":0,"vin":[{"txid":"5cf014003464e9cc9280c491a79dfffc4837a39eea5531a3149882efd8acea05","vout":2,"tree":0,"sequence":4294967295,"amountin":3.14925884,"blockheight":323344,"blockindex":0,"scriptSig":{"asm":"304402206cfcd9d0e390d7f1a367eda5ba1f159416235c8fa54cc3ea04e8381aa17a93050220220aea7e9ca2d4750354990f1e81a3acc5f1f484557a5968262eeafdaea02a2001 02ae1f6b51086bd753f072f94eb8ffe6806d3570c088a3ede46c678b6ea47d1675","hex":"47304402206cfcd9d0e390d7f1a367eda5ba1f159416235c8fa54cc3ea04e8381aa17a93050220220aea7e9ca2d4750354990f1e81a3acc5f1f484557a5968262eeafdaea02a20012102ae1f6b51086bd753f072f94eb8ffe6806d3570c088a3ede46c678b6ea47d1675"}}],"vout":[{"value":1.14900584,"n":0,"version":0,"scriptPubKey":{"asm":"OP_DUP OP_HASH160 18c235413d7c1abc0b3609b77c625bcd4d3370d6 OP_EQUALVERIFY OP_CHECKSIG","hex":"76a91418c235413d7c1abc0b3609b77c625bcd4d3370d688ac","reqSigs":1,"type":"pubkeyhash","addresses":["TsTH3LyTAK4Yw7BEusL4kyZGar8sToUs2p5"]}},{"value":2,"n":1,"version":0,"scriptPubKey":{"asm":"OP_DUP OP_HASH160 10437a67b9eef35979f5412667e700a7b5b4f780 OP_EQUALVERIFY OP_CHECKSIG","hex":"76a91410437a67b9eef35979f5412667e700a7b5b4f78088ac","reqSigs":1,"type":"pubkeyhash","addresses":["TsSW886LsvH9Lhpdi6E7CmBo3vij7UkQU9K"]}}],"blockhash":"00000000045d753df82df7352e98f5a20d91b9fa5d441e1cbaa57651eef8e2ef","blockheight":323504,"confirmations":8,"time":1528793552,"blocktime":1528793552},"error":null,"id":"0"}